:10800000781B0120B1E300000DFE01009DE300009C
:108010009DE300009DE300009DE300009DE3000060
:1080200000000000000000000000000089E50000E2
:108030009DE300000000000041E500009DE300001A
:1080400019E7000019E7000019E7000019E7000030
:1080500019E7000019E7000019E7000019E7000020
:1080600019E7000019E7000019E7000019E7000010
:1080700019E7000019E7000019E7000019E7000000
:1080800019E7000019E7000019E7000019E70000F0
:1080900019E7000019E7000019E7000019E70000E0
:1080A00019E7000019E7000019E7000019E70000D0
:1080B00019E7000019E7000019E7000019E70000C0
:1080C00019E7000019E7000019E7000019E70000B0
:1080D00019E7000019E7000019E7000019E70000A0
:1080E00019E7000019E7000019E7000019E7000090
:1080F00019E7000019E7000019E7000019E7000080
:1081000019E7000019E7000019E7000019E700006F
:1081100019E7000019E7000019E7000019E700005F
:1081200019E7000019E7000019E7000019E700004F
:1081300019E7000019E7000019E7000019E700003F
:0481400019E700003B
:04814400FFFFFFFF3B
:108148007BB972B90029BEBF00204FF0004106E09C
:1081580008BF00281CBF6FF000414FF0FF3000F04F
:1081680057B8ADF1080C6DE904CE002909DB002BE6
:108178001ADB00F04FF8DDF804E0DDE9022304B073
:108188007047404261EB4101002B1BDB00F042F8D5
:10819800DDF804E0DDE9022304B0404261EB41016F
:1081A800524263EB43037047524263EB430300F0D0
:1081B80031F8DDF804E0DDE9022304B0404261EB68
:1081C80041017047524263EB430300F023F8DDF8A6
:1081D80004E0DDE9022304B0524263EB4303704735
:1081E80053B94AB9002908BF00281CBF4FF0FF3116
:1081F8004FF0FF3000F00CB8ADF1080C6DE904CE7B
:1082080000F008F8DDF804E0DDE9022304B0704767
:10821800704700BF2DE9F04786468C460846089E01
:10822800154674461946002B40F0C1808542B2FAC3
:1082380082F245D94AB1C2F1200300FA02FC954006
:1082480094402EFA03F343EA0C0C4FEA154EA8B2F9
:10825800230CBCFBFEF80EFB18CC08FB00F943EA24
:108268000C43994528D9EB1808F1FF3704D29945F2
:1082780002D9A8F102072B44A3EB0903A4B2B3FB6C
:10828800FEFC0EFB1C330CFB00F044EA0344A04246
:1082980014D92C190CF1FF3304D2A04202D9ACF145
:1082A80002032C44241A43EA07401EB1D440002399
:1082B80034607360BDE8F0874746DDE76346F1E761
:1082C80092BB431B01214FEA154EAFB2200CB3FB02
:1082D800FEFC0EFB1C330CFB07F840EA03439845F1
:1082E80061D9EB180CF1FF3004D2984502D9ACF1F2
:1082F80002002B44A3EB0803A4B2B3FBFEFC0EFB65
:108308001C330CFB07F744EA0344A7424DD92C1948
:108318000CF1FF3304D2A74202D9ACF102032C447A
:10832800E41B43EA0040C0E7C2F1200395409440B3
:1083380020FA03F12EFA03F34FEA154E9040AFB23C
:108348000343B1FBFEFC0EFB1C10190C0CFB07F8D9
:1083580041EA0041884522D969180CF1FF3004D25E
:10836800884502D9ACF102002944A1EB08019BB26F
:10837800B1FBFEFC0EFB1C110CFB07F743EA0143A3
:108388009F420ED9EB180CF1FF3104D29F4202D95B
:10839800ACF102012B44DB1B41EA004193E7604644
:1083A800E3E76146F7E76046A4E76346B8E7834238
:1083B80006D916B9002108467CE7C6E900E0F9E7C6
:1083C800B3FA83F78FB9834201D3724508D8BEEB5D
:1083D800020460EB030301209C461EB9002169E7F3
:1083E8003846FAE7C6E9004CF8E7C7F1200CBB406D
:1083F8000EFA07F522FA0CF42EFA0CF1BA401C43D7
:1084080020FA0CF3B8404FEA144901431FFA84FEDE
:10841800B3FBF9F809FB18300B0C08FB0EFA43EA1A
:1084280000439A4540D9E31808F1FF3004D29A4531
:1084380002D9A8F102002344A3EB0A0389B2B3FBD3
:10844800F9F809FB183308FB0EFE41EA03418E4593
:108458002CD9611808F1FF3304D28E4502D9A8F14E
:108468000203214443EA0040A1EB0E01A0FB02985D
:108478004145CE46434602D306D14D4504D2013884
:10848800B9EB020E68EB0403002EA7D0B5EB0E0281
:1084980061EB030101FA0CFC22FA07F3F9404CEAFC
:1084A8000303C6E9003199E74046C5E74346D9E7E3
:1084B80010F8012B11F8013B012A28BF9A42F7D086
:1084C800D01A7047034611F8012B03F8012B002A34
:1084D800F9D17047034613F8012B002AFBD1181A6B
:1084E80001387047000000002DE9F04706460F46A6
:1084F80090468AB01FF0F2FD4FF47A73A0FB034553
:1085080003FB0155E40B012F44EA45444FEAD535F6
:1085180008D108213046CDE90045294A16F096FCD5
:10852800002013E0D8F8047026483946FFF7C0FF4A
:1085380078B139462448FFF7BBFF50B130463B4677
:108548000121224A16F082FC6FF004000AB0BDE84F
:10855800F087204618A3D3E900232946FFF7F0FD4A
:1085680005460C4610461946194A0023FFF7E8FD50
:1085780080460F46104619464EF660220023FFF744
:10858800DFFD82468946104619464FF47A72002369
:10859800FFF7D6FDCDE904A9CDE90601CDE9082309
:1085A80008213046CDE90287CDE90054094A16F082
:1085B8004DFCB5E7AFF30080005C26050000000025
:1085C80095A40200A6A40200A9A40200B2A4020075
:1085D80080EE3600C9A4020098B5134800AF0368BE
:1085E80003F00703022B12D96C4688B06A460F4B7A
:1085F80053610F4B93614FF4007393830D4B42F813
:10860800103F00234FF4E65102F0A8FDA54600F004
:10861800FFF800F0BDFE00F073F800F06DFC01F00B
:1086280047F80020BD4698BD04CE00207699020088
:108638008D99020003000001014813F00FBB00BF31
:10864800C8E0002008B50648036813F0060F03D0F9
:108658000221044A16F012F96FF0770008BD00BF36
:1086680008CE00209D99020007B50023CDE900013E
:1086780040F6CD42694603480DF0DEFA03B05DF8D6
:1086880004FB00BF748B020070B50B4D0446D5E99E
:108698000023821A61EB0303C82A73F100030E4614
:1086A80003DABDE87040FFF7CDBFFFF7DDFF08B97B
:1086B800C5E9004670BD00BF80C5002010B51FF099
:1086C8000DFD4FF47A72A0FB020302FB0131C00BCF
:1086D80040EA4140C90BFFF7D7FF034650B10648AF
:1086E800026812F0060F05D0BDE810400221034AC7
:1086F80016F0CDB810BD00BF08CE0020BC9902000E
:108708002DE9F041364937481FF0F6FA364E374D15
:1087180030461FF0C0F850B92B68580704D0012123
:108728002846334A16F0AAF86FF0120417E03769A2
:10873800D6F808803B68062143F040033B6030468A
:10874800D8F800302B4A9847044658B12B68590787
:1087580005D0012103462846274A16F098F82046F6
:10876800BDE8F0812549264B4B6040238B60D8F843
:108778001C30E3B10122304698470446C8B9D8F8FE
:108788001840F4B13B684FF0A07213F0400F14BFCB
:108798004FF000734FF0806306213046A04704462F
:1087A80090B12B685B07DAD0164A234606E06FF0D3
:1087B80057042B685A07D2D02346134A01210B4885
:1087C800CBE76FF05704ECE72B6803F00703022BA5
:1087D800C5D9032128460D4A16F050F8BFE700BF57
:1087E800C5860000C8E00020A887020008CE002047
:1087F800DF99020011000100F7990200D8E000207B
:1088080041860000429A02001A9A02006C9A0200FD
:1088180010B503F0F1F8044650B10B4803685A0745
:1088280004D02346094A012116F031F8204610BD2C
:1088380016F0DBF804460028F8D0034803685B0705
:10884800F4D0034A2346EEE7FCCD0020909A0200BC
:10885800B29A0200004870474CF60020F0B587B085
:108868000C4615462B4903AA07461E4616F0C0F8C3
:1088780050B1039B43B920230093274B3246294626
:10888800204614F0B6FD33E03846244903AA16F012
:10889800AFF828B1039B1BB980230093204BEDE769
:1088A8003846204903AA16F0A3F828B1039B1BB940
:1088B800802300931C4BE1E738461C4903AA16F0B5
:1088C80097F8B8B1039BABB9062332460093294603
:1088D800204604AB14F08DFD50B90DF10A0104A82F
:1088E80014F0BBFD20B90C4BBDF80A20A3F82021D9
:1088F80007B0F0BD38460E4903AA16F079F828B13A
:10890800039B1BB9402300930A4BB7E76FF00100A4
:10891800EEE700BFD39A02004CF60020DB9A020073
:108928006CF60020ED9A0200ECF60020FC9A02009A
:108938000B9B02006EF7002001462023014A0248E3
:1089480014F06DBD4CF60020CE9A0200014680233B
:10895800014A024814F063BD6CF60020D69A020062
:1089680001468023014A024814F059BDECF6002064
:10897800E89A0200034607B520B96FF0150003B066
:108988005DF804FB084A0621A2F82001074A684658
:1089980014F0A4F9431E042B0246EED86946044895
:1089A80002F0E0FEEBE700BF4CF6002012B902002F
:1089B800F79A020001464023014A024814F02FBDED
:1089C8006EF70020069B020070B58AB00E46054679
:1089D8001446002120220DF105001FF086FD012319
:1089E8009E428DF8043005D91F2261680DF10500FB
:1089F8001FF0CFFD40F6CD4200230A4801A90DF033
:108A08001BF9044640B1034601212846064A16F0E0
:108A18001DFA20460AB070BD08212846034A16F000
:108A280015FAF6E74C8B0200209B02003F9B0200E0
:108A380030B514468BB021220021054601A81FF04D
:108A480054FD61681F220DF105001FF0A2FD40F6DC
:108A5800CD420023094801A90DF0EEF8044640B1C3
:108A680003460121064A284616F0F0F920460BB0C5
:108A780030BD0821034A0DF10503F4E74C8B0200D1
:108A8800209B0200569B020038B5044600F072FA9B
:108A9800054600F069FA00F0A9F908210346074ADB
:108AA800204616F0D3F92B782BB12B460821204607
:108AB800034A16F0CBF9002038BD00BF749B0200B2
:108AC8007F9B020070B50546FFF7C4FE0446037895
:108AD800254E0821002B14BF03463346234A284657
:108AE80016F0B4F994F820308BB304F12003082170
:108AF80028461F4A16F0AAF994F8A0304BB304F19F
:108B0800A003082128461B4A16F0A0F9B4F8203122
:108B18000BB308212846184A16F098F994F8223120
:108B2800FBB104F5917308212846144A16F08EF912
:108B3800204614F0AEFC124A124B0821002818BF38
:108B480013462846104A16F081F9002070BD3346B6
:108B5800CDE7054BD5E7082128460C4A16F076F9EB
:108B6800DCE7014BDFE700BF8E9B02009D9B020004
:108B7800AC9B0200BB9B0200CA9B0200ED9B02005B
:108B8800969B02009A9B0200FC9B0200D99B020064
:108B980038B5054600F0A2F9044628B1034601217C
:108BA8002846024A16F052F9204638BD0B9C0200AE
:108BB80073B505460DF106015068164614F04DFCD4
:108BC800044640B173680E4A0121284616F03EF962
:108BD800204602B070BDBDF80600FFF7CBFE044684
:108BE80010B10346074AEFE708212846BDF80630CA
:108BF800054A16F02BF92846FFF7CAFF0446E7E7AF
:108C0800279C02003E9C02005C9C020037B504468B
:108C18001FF064FA4FF47A75A0FB053205FB0121B9
:108C2800DB0B43EA4143C90BCDE9003140F6CD42A5
:108C38000023694609480CF0FFFF054640B103468A
:108C480001212046064A16F001F9284603B030BD36
:108C580008212046034A16F0F9F8F6E7748B02005B
:108C68006F9C0200939C020070B50546506816463A
:108C7800FFF7A0FE044650B9284673680821084A41
:108C880016F0E4F82846BDE87040FFF781BF0346B8
:108C980001212846034A16F0D9F8204670BD00BFC6
:108CA800C39C0200AB9C020070B50546506816468E
:108CB800FFF756FE044650B9284673680821084A4B
:108CC80016F0C4F82846BDE87040FFF761BF0346B8
:108CD80001212846034A16F0B9F8204670BD00BFA6
:108CE800EE9C0200D09C020038B505465068FFF79C
:108CF8002DFE044648B928460821084A16F0A6F869
:108D08002846BDE83840FFF743BF034601212846FF
:108D1800034A16F09BF8204638BD00BF1B9D020091
:108D2800019D020070B5054650681646FFF704FE1F
:108D3800044650B9284673680821084A16F086F890
:108D48002846BDE87040FFF723BF034601212846A7
:108D5800034A16F07BF8204670BD00BF3E9D020016
:108D6800279D020000B58DB03022002168461FF013
:108D7800BCFB124B1B788DF800301FF0AFF94FF495
:108D88007A72A0FB020302FB0131C00B40EA4140AA
:108D9800C90BCDE90A011F2209490DF101001FF095
:108DA800F8FB002300228DF820306946002305488F
:108DB8000CF042FF0DB05DF804FB00BF09F800207D
:108DC800E9F70020608B0200002200200021044BFC
:108DD8001A70044BC3E9000103481EF0D6BF00BF58
:108DE800E9F7002038D1002008D1002004289ABFD4
:108DF800024B53F820000248704700BFF48D020070
:108E0800BA9E02002DE9F0410446154D00AF2878BE
:108E1800A04204D1FFF7A6FFBD46BDE8F081114E80
:108E2800336803F00703022B18D9FFF7DFFF014669
:108E38002046FFF7DBFFE8468AB06A460A4BD06156
:108E4800C2E90531094B1362094B42F8103F002370
:108E58004FF42351304602F081F9C5462C70D9E70A
:108E680009F8002000CE0020C29E02000002010383
:108E78000400000298B5104800AF036813F0060F0D
:108E880012D06C4688B06A460C4B53610C4B936108
:108E98004FF4007393830B4B42F8103F00234FF4B9
:108EA800E45102F05BF9A546FFF78EFF0120FFF7BA
:108EB800A9FFBD4698BD00BF00CE0020D29E02008B
:108EC800E9F7002003000001034B1B78022B01D1B6
:108ED800FFF7D0BF704700BF09F8002008B5054B61
:108EE8001B78023B022B03D914F0E7FAFFF78AFF3D
:108EF800002008BD09F80020B0B5154900AF154895
:108F08001EF035FF14F0D9FA134D144C2870FFF7F2
:108F180029FF236803F00703022B15D92878FFF7E8
:108F280065FF6D4688B06A460D4BC2E905304FF4BF
:108F3800007393830B4B42F8103F00234FF4E65124
:108F4800204602F00BF9AD460020BD46B0BD00BF7B
:108F5800D18E000008D1002009F8002000CE0020A2
:108F6800E99E020003000001014B1878704700BF1A
:108F780009F8002000487047E9F70020B0B504461A
:108F880000AF08B1037863B92748036813F0060FE8
:108F980003D0264A022115F071FC6FF01500BD467A
:108FA800B0BDFFF797FA1F28024606D91E48036886
:108FB80013F0060FF1D01E4AECE71E4B1878012873
:108FC8001CD0194C236813F0060F14D0FFF70EFFBE
:108FD8006D4688B06A46184BC2E905304FF40073F5
:108FE8009383164B42F8103F00234FF4E451204678
:108FF80002F0B4F8AD466FF00C00D0E7214601321C
:109008000F481FF04BFA002100200E4B4FF4F012CE
:10901800C3E9000100230C4812F0C2FE0220FFF74A
:10902800F1FE0020BBE700BF00CE0020FB9E02003F
:10903800269F020009F80020529F02000300000149
:10904800E9F7002038D1002008D10020B0B51F4A28
:1090580000AF1478022C1ED01D4D2B6813F0060F9C
:1090680015D02046FFF7C2FE6C4688B06A46194BF9
:10907800C2E905304FF400739383174B42F8103F51
:1090880000234FF4E451284602F068F8A5466FF033
:109098000C00BD46B0BD88B103787BB10F49FFF71E
:1090A80007FA58B10A48036813F0060F03D00C4AB0
:1090B800214615F0E3FB6FF01500EAE7FFF784FEA1
:1090C8000120FFF79FFE0020E3E700BF09F800201A
:1090D80000CE0020769F020003000001E9F700207F
:1090E800979F02000068037853B1012B0BD0084802
:1090F800026812F0060F09D00221064A15F0C7BB14
:109108000130FFF73BBF0130FFF7A0BF704700BF3A
:1091180000CE0020C09F0200B0B5354B00AF1878D4
:10912800022809D00328334C1ED0236813F0060FF9
:1091380047D16FF00C0015E02F481EF026FE1EF0F8
:10914800CDFF4FF47A72A0FB020302FB01312B4CD6
:10915800C00B40EA4140C90BC4E900010320FFF7F6
:1091680051FE0020BD46B0BD236803F00703022B63
:1091780023D91EF0B3FF4FF47A72A0FB020302FB5F
:109188000131C30B1D4843EA4143D0E900206D4635
:109198009B1A88B04FEAD13161EB00016A46184842
:1091A800D161C2E90503042342F8103F00234FF4BC
:1091B8000351204601F0D2FFAD46FFF705FE01201E
:1091C800CDE7FFF713FE6D4688B06A460D4BC2E93E
:1091D80005304FF4007393830B4B42F8103F002384
:1091E8004FF4E451204601F0B9FFAD46A1E700BFB6
:1091F80009F8002000CE002008D1002038D1002036
:10920800DC9F0200F89F0200030000010A4B18705F
:109218000A4B1B787BB10A4B1A691268520748BF80
:1092280080F0010020B19B68DB68042104481847DE
:109238009B681B69F9E770470BF800200AF80020C3
:10924800A887020010B5134C2378023B022B1FD8C5
:10925800114B187880F00100FFF7D8FF2378032B13
:109268000CD0042B0ED0022B0FD04FF0FF324FF052
:10927800FF33BDE81040094812F092BD4FF4005288
:109288000023F6E741F23432FAE74FF40042F7E7F9
:1092980010BD00BF0CF800200BF8002040D10020C2
:1092A80003289ABF014B185C04207047C0A0020035
:1092B80004289ABF024B53F820000248704700BFA9
:1092C800088E0200BA9E0200B0B50446204B00AFDB
:1092D800187020481EF059FD012C2BD0A31E022B1C
:1092E80007D80120FFF792FF032C25D14FF4005235
:1092F80026E00020FFF78AFF174D2B6803F00703CD
:10930800022B15D92046FFF7D3FF6C4688B06A4672
:10931800124BC2E905304FF400739383104B42F8A7
:10932800103F00234FF4E651284601F017FFA546E9
:10933800BD46B0BD2046DDE7042C06D04FF4004200
:109348000023044812F02CFDD6E741F23432F7E747
:109358000CF8002040D1002028CE00204BA00200AD
:109368000300000108B50368074A1878FFF798FF5B
:109378001178064A09B9107008BD12788242FBD0EC
:10938800BDE80840FFF7A0BF0AF800200CF800204D
:1093980010B51A491A481EF0EAFC1A4C20461EF06D
:1093A8007AFA58B9184803685A0703D00121174AAE
:1093B80015F064FA6FF01204204610BD2269A16806
:1093C8001368204623F0040313600B684FF4C0228F
:1093D80002219847044648B10B4803685B07EBD065
:1093E800012123460A4A15F052FAE5E70122094B02
:1093F8001A70094B1878FFF767FFDDE74D920000F8
:1094080040D10020A887020028CE00205BA00200DF
:1094180071A002000AF800200CF8002010B40346DE
:109428000A46034881680C691946234610BC184748
:109438000C8802002DE9F04FA1B000AF92483B2103
:109448008368DB6898470446002840F011810320B0
:1094580007F12001FFF7E2FF0446002840F00881E9
:10946800072007F13801FFF7D9FF0446002840F02C
:10947800FF800C2007F11801FFF7D0FF04460028F1
:1094880040F0F6801EF02AFE4FF47A797D6AC7E92B
:10949800021095FBF9F5F96A3B6A91FBF9F103FBB8
:1094A8000955BB6A3A6B03FB09187B6B214693FB92
:1094B800F9F302FB0936FB6BBA6B93FBF9F302FB7A
:1094C800093A7B6C3A6C93FBF9F302FB093BFB6CA2
:1094D800BA6C93FBF9F302FB09333B61FB69BA6988
:1094E80093FBF9F302FB093307F1500030227B604C
:1094F8001EF0FBFF85FB0532C8FB0832C6FB0632AF
:1095080062495B18624962F100028B4272F1000203
:109518002CBF012300237B614FF0FF324FF0FF3354
:109528005C4812F031F9012387F850307B69B9683B
:1095380087F85130FB68C7E91858A3FB093209FBC3
:109548000122DB0B43EA4243D20BC7E916323B69DF
:10955800C7E91A6A7B67DFF840E17B68C7F870B033
:1095680007F1500CBB67BCE80F00AEE80F00BCE881
:109578000F00AEE80F009CE80F008EE80F0045488A
:1095880012F07AF9454B1B6803F00703022B65D9E3
:109598004FF00A0996FBF9F34DF6D076386906FBC9
:1095A8000AFE06FB0BFC70433D4A98FBF9F1E846BE
:1095B80094B09EFBF2FE9CFBF2FC90FBF2F695FB4E
:1095C800F9F56A46DFF8DCA0C2F814A04FF0640A87
:1095D80095FBFAFB0AFB1B55002DB8BF6D42D56100
:1095E80091FBFAF50AFB15110029B8BF49425162EF
:1095F80093FBFAF10AFB1133002BB8BF5B42D3622D
:109608009EFBF9F309FB13EE13638EEAEE73A3EBEB
:10961800EE7353639CFBF9F309FB13CC93638CEA59
:10962800EC73A3EBEC73D36396FBF9F309FB1366B6
:1096380013647B69002E93644FF00F03B8BF764222
:10964800C2F818B015629162566442F8103F47F6A6
:10965800C0012346114801F081FDC5464FF4803210
:109668000023114812F068FB8437BD46BDE8F08F2F
:109678000A48036813F0060FF0D0022123460B4A6C
:1096880015F005F9EAE700BF0C880200FC455DFC0F
:109698008182AD04E4E00020A0D1002038CE002073
:1096A800A0860100C4A0020070D1002023A10200FE
:1096B80010B512481EF0DCF911481EF0ECF8114CF8
:1096C80050B9236813F0060F17D002210E4A20461E
:1096D800BDE8104015F0D2B80C490D481EF047FB04
:1096E800002300220A4812F027FB236803F007032F
:1096F800022B02D90321074AE9E710BDE4E0002064
:109708000C88020038CE00203DA102003D940000E4
:1097180070D1002059A1020010B5094C0A449142A9
:1097280000D110BD11F8013B58400309E35C00016A
:10973800C0B243401809205C1B01DBB25840EEE779
:1097480089A1020008B500F0B7F8012200230949F1
:10975800C0E9002241610849C0E902330A600749AB
:1097680003610A60064A1360064A1360064A1360DA
:1097780008BD00BFF5A502003CC6002038C6002081
:1097880000E10020FCE00020F8E000202DE9F04195
:1097980007460E46154600F08FF8C36804461BB905
:1097A80043691A78002A41D10023E3606368BB4209
:1097B80056F8232008DB324B6361204600F062F83C
:1097C8004FF0FF30BDE8F081511C616192F80080D4
:1097D800B8F12D0FEFD1911C616151782D29A1604D
:1097E80004D192786AB901336360E4E749B9244B3C
:1097F8004146284663611EF090FE0028DDD0C4F87B
:109808000880D4F80880284641461EF086FEB8F144
:109818003A0F636900D070B91B7813B963680133D4
:109828006360204600F02EF83F20CBE75A1C4261C7
:109838001B788360E5E742783A2A0BD00022226140
:109848001B7813B9636801336360204600F01AF887
:10985800A068B7E718786268094928B901329742C1
:10986800626004DD56F82230C4E90431EAE7616138
:109878002D7820463A2DD5D100F004F82846A1E7E6
:10988800F5A502000268074B1A604268064B1A6089
:109898008268064B1A60C268054B1A600269054B5C
:1098A8001A6070473CC6002038C6002000E100203E
:1098B800FCE00020F8E000200048704720C60020A7
:1098C8002DE9F04F91B0009302F004030293C2F324
:1098D800C2030133840705460E46DDF868900392FB
:1098E800059340F0BB81041D30B1072909D86FF0FA
:1098F8001B0011B0BDE8F08F01F00706341DC6F15A
:109908000806009B4FF000084FF0040A591E4FF05C
:10991800FF3347460193C3465346CDF810800DB137
:10992800009A22600598002800F3E8809848009A79
:10993800824203D397488242C0F0E080039AA4EBA6
:10994800050E92074FEA9E0000F103810F2F00F2E7
:10995800B180002D00F0058107F140020DEB020CEB
:10996800019A0CF8200C0CF8102C04980130049083
:10997800E7E07A285DD84B280ED8472859D82928F7
:109988002DD8252852D054D820287AD02338D0F181
:10999800000B4BEB000B74E04C382E2849D8DFE85D
:1099A80000F07048484848484848484848484B48A4
:1099B8004848484848484859484B4B595959704BAA
:1099C8006D487048184B184848827F4B48484B48A8
:1099D8007F0000204FF0000B4FF0040A38E001220E
:1099E8002A38C0B202FA00F010EA0E0F49D110F07E
:1099F800625C2FD110EA020B43D06046013C54440C
:109A0800B4FBFAF40AFB04F4002D61D0A3EB050CB7
:109A1800A444B4453FF66BAF002868D1042B47D166
:109A280059F8043B2360042304342AE0019A013ADC
:109A380001924FF0000B24E011F8010C6C2834D18E
:109A4800002011F8023C83466C2BC5D14FF0080A60
:109A58005346D3E709F1070929F00709073424F029
:109A68000704F9E802AB35B106982044B0423FF646
:109A78003EAFC4E900AB4FF0000B08344FF0080AC2
:109A8800534611F8010F002878D0BBF1000F7FF47E
:109A980070AF2528F5D14FF0010B019B01330193DD
:109AA8004FF0040AECE7584694E700208346A5E700
:109AB800082B02D06FF015001BE709F1070929F000
:109AC8000709F9E80223C4E9002308230834D8E782
:109AD80068B9042B02D109F10409A4E7082BE9D1DC
:109AE80009F1070929F0070909F10809EDE7059ABD
:109AF800013A059259F8042B009210E7039A90074F
:109B080020D54FF0010CA4EB050E4FEA9E00BEF5E0
:109B1800007FCFD20F2FCDD8F5B107F140020DEB62
:109B2800020E019AC0B20EF8200C0EF8102CBCF1EF
:109B3800000F3FF41AAF60F07F000EF8200C08F118
:109B480001080137C5F108024FF6DA7E043406929F
:109B580097E74FF0000CDAE7BCF1000F01D00136AF
:109B6800EFE7029802360028EBD10098CDE90631DC
:109B7800FEF7B0FCDDE906310644E2E7631BB3F506
:109B8800806F97D245B9A6F10804E018B1E600BF86
:109B9800D0860200B4C00200029A9B0828602B708D
:109BA8009DF81030C2B1EB7085F80280B8F1000F53
:109BB80005D0002208A8C5F1010C97420ED14FF03C
:109BC800000AC5F101030DF1200901930DF1300BD5
:109BD800574512D1601B8CE66B70E5E710F8013B26
:109BE800190608D504EB0C0EB64503F07F033FF6C3
:109BF8007EAE04F8013B0132DFE7B8F1000F03D075
:109C080099F90020002A17DB029BD3B11AF80B2020
:109C180004F8012B0022019B98182044B0423FF61B
:109C280066AE99F80000009904F8010B20460392EB
:109C38001EF034FC039A14440AF1010A09F10109DF
:109C4800C6E799F8002055F822300093029B009847
:109C580045F82230FEF73EFC421CDCE76FF00D00B1
:109C680047E600BF2DE9F04F97B000AFD7F880B0B6
:109C78003B62CBF3C0030446894690F802A0FA621F
:109C8800BB6141B9457800780AEB800020444D4516
:109C980017D8A0EB0409E378FB61BAF1000F02D0F2
:109CA8001BF0010F16D1FB6953BBFB6A1BB1494678
:109CB80020463A6A98474D4628465C37BD46BDE877
:109CC800F08F461C3046FEF705FC0130304409F1A0
:109CD8000109DCE7626823787A62FA6A9900796197
:109CE80004EB8301002A40F005810E464FF000087E
:109CF8004D4601EB0A094E4550D101EB0A0610E02A
:109D08001BF0020FD1D023789A007A61626804EBC5
:109D180083017A62FA6A002A7BD14D46904601EBAC
:109D28000A061BF0050F0CBF02230123FB62FB6927
:109D380006EB430A0BF00203BB625645BCD016F88B
:109D4800021B16F8013C54F823909B4B994502D30B
:109D58009A4B99453AD3BB69002B44D0786A13F0E3
:109D680093FE00283FD09648036813F0060F13D0DF
:109D7800E9468AB06A46934B53617B6AC2E9063169
:109D88004FF400731384904B42F8103F00234FF4B4
:109D9800125101F0E3F9CD46023DCEE716F8013B3A
:109DA800F96254F82300FEF795FBD7F88430F96A76
:109DB80001304BB1D7F8883098453EBFD7F884308A
:109DC80023F8180008F10108054494E7BB6923B19A
:109DD800786A13F059FE0028C5D11BF0010F05D190
:109DE800FB6AED1AA9E7BB6A002BA6D04846FEF726
:109DF80071FBD7F8843053B1D7F8883098453FBF06
:109E0800D7F88420431C22F8183008F101080544CB
:109E180093E7BAF1000F73D01BF0040673D0D04655
:109E2800002607F1480052463B61B9621EF036FB36
:109E3800B96A3B6901EB0A02BA62FA69F969520028
:109E4800FA60BA6A02EB41023A610BF00202BA60A8
:109E58003A69B96A8A4258D162781BF0020F18BF72
:109E680000217A6208BF4FEA5801B2181BF0010FAF
:109E7800D2B240F09F801BF0040F14BF4046002070
:109E8800BB616270A070E17020463A6A7969FB6A2A
:109E98009847051EFFF610AFBB69414623707B6AE1
:109EA8003A6A6370FB6984F802A0E37007F148001E
:109EB800FB6A9847B0F10008C0F2B4807B69A9EB4F
:109EC8000A01C91AFB683A6AC91AD7E90A03984706
:109ED8000028C0F2A9804FF0000BA84408EB000549
:109EE80007F1380AB34571D300213A6A0846FB6A7C
:109EF8009847E1E656464FF0000807F1380092E728
:109F08005646D04696E7B04694E7BA6A12F8021B5E
:109F180012F8015CBA6254F82500274A904202D32D
:109F2800264A90421ED3BA6932B1786A7B6013F030
:109F3800ABFD7B6800288BD1BA6802BB08F1280208
:109F480007F1300C08F10100944407F1580208F1B8
:109F5800020852FA80F00CF8101C5FFA88F800F832
:109F6800105C75E7BA693AB1786A7B6013F08CFDCA
:109F78007B6800287FF46CAF1BF0010F09D006F155
:109F8800280207F13000711C161806F8205CCEB2C2
:109F98005EE71BF0040F3FF45BAF08F1280207F1FE
:109FA800300008F1010102EB000808F8105C5FFAC4
:109FB80081F84DE7002063E7D0860200B4C00200B4
:109FC8000CCE0020A0A10200040000011BF80A30FA
:109FD80054F8239087F83730D7F88430FBB133F83A
:109FE8001B8001213A6AFB6A07F13700984700286D
:109FF8001ADB0544B8F1000F06D14846FEF76AFAA5
:10A0080000F101081FFA88F8414648463A6AFB6A97
:10A018009847002808DB05440BF1010B62E7D7F8E5
:10A028008480DEE7454647E6054645E6014B18606D
:10A03800704700BF40C6002080B505460E4617464B
:10A04800984612F0A7FA03461EF034FB0446DFF8E0
:10A058001890424649F8003039463046A84754F827
:10A06800090004F00FFA00BF0800000070B50025D1
:10A078004FF0FF334FF0FF32174811F085FB174BB5
:10A08800D3E8AF2F82B10135042D03F12803F7D1AE
:10A098001EF010FB17224FF0FF35114B1A500E48D7
:10A0A80011F0EAFB284670BD28246C43D3E8EF0F73
:10A0B8000130C3E8E10F0029F8D10A4E33193251B3
:10A0C8005A6004F10C0030441DF0D2FC04F1200069
:10A0D80030441DF06DFEE2E7F8CE00200CE10020D0
:10A0E8000C00000004E1002010B4044610462822A9
:10A0F8005443084B1A191951506040B1C26832B123
:10A108000C34234440F2051210BC13F0F1BC10BC0F
:10A11800704700BF04E100202823434330B50D49B0
:10A1280008330B44D3E8AF2F92B1541ED3E8EF5F46
:10A13800954204D1C3E8EC4FBCF1000FF6D1F1D140
:10A14800012A05D12823584300230A180B505360CD
:10A1580030BD00BF04E100202DE9F047058B04461F
:10A168002807904611D4022905F0070540F0CC8055
:10A17800204613F020FF78B10138218B042811D82C
:10A18800DFE800F0C2106D85950001290CBF45F08D
:10A19800100545F02005258388F31188BFF36F8FDC
:10A1A800BDE8F08701F0070AAA4500F0A58000275E
:10A1B800B9463E46A368002B00F0BC8041F0080178
:10A1C800218388F31188BFF36F8FA168002900F0FD
:10A1D800BA800D68002900F0B68033465246204602
:10A1E800D1F80480C047002D76D02B6829461D463B
:10A1F800F0E701F007035A1F012A1BD8002221F0BB
:10A208000701062B276889B2C4E9002209D13B4619
:10A2180003E0628B013262831B68002BF9D141F0A5
:10A2280002012046218313F0C6FE00287AD041F0AF
:10A23800200176E0042B0AD121F0070189B22046DB
:10A24800218313F0B8FE10B141F020012183218B46
:10A2580001F0070AAA454FD00027B946AAE72369A3
:10A2680021F0070141F00601062DD3F80090218363
:10A278002DD1B9F1000F3FD041F00801218388F3B7
:10A288001188BFF36F8F20463949C84729E021F06C
:10A298000701236941F0040189B2042DD3F8049021
:10A2A8002183E6D000274FF0040A3E4682E721F0DA
:10A2B8000701236941F0050189B2052DD3F80890FB
:10A2C8002183D6D000274FF0050A3E4672E70027C3
:10A2D8004FF0060A3E466DE72B4687E7B9F1000FB7
:10A2E800D1D1EFF31188202383F31288BFF36F8F46
:10A2F800238B23F008032383258BEA062ED525F02C
:10A308001003238305F007056669218B002EBFF62D
:10A3180070AF00232768C4E9003321F0070141F03A
:10A3280001012183218B4FF0000901F0070AAA459A
:10A338007FF440AF002F9CD041F00801218388F3BF
:10A348001188BFF36F8F002FC8D03D683946334658
:10A358005246204613F05BFE2F46F4E7AB067FF526
:10A368001BAF25F02003238305F0070500E700BF96
:10A3780043E001002DE9F7430F4606460821C06A6D
:10A3880014F00DF880463C68DFF84890241A3C60C9
:10A3980004EA0905AC4203D8002003B0BDE8F08305
:10A3A80008236A462146304613F08EFF0028F4D170
:10A3B8006946304613F0FDFF40B1BDF80230BDF8E4
:10A3C800042005EA090513441D443C60A4EB080475
:10A3D800E0E700BF0000FFFF2DE9F04704468AB020
:10A3E80000F1140738461DF043FBA06A8368DB6858
:10A3F8009847E06250B99F4803685D0703D09E4ABA
:10A40800012113F0C1FF6FF015054EE0A06A8368C3
:10A41800DB6898470368013B1F2B05D995480368FB
:10A428005C07F0D0954AEBE7A06A216807AA1BF001
:10A438004CFC28B18F4803685907E4D0904ADFE7FD
:10A44800A5892DB1089BB5FBF3F203FB12552DB17D
:10A45800884803685A07D6D08A4AD1E7E389012B8E
:10A4680005D8844803685B07CDD0874AC8E7E36A04
:10A47800029593F804904FF0FF334FF0FF323846BF
:10A4880011F082F90821E06A13F089FFA846064610
:10A49800E3891FFA85FA53450BD8E389434526D14A
:10A4A800384611F0E9F96FF02C0528460AB0BDE8E6
:10A4B800F087A1892B04891B13FA81F14A460823E6
:10A4C8002046029113F00EFF78B1204602A913F03E
:10A4D8004EFF08F1010808234A46204602991FFA50
:10A4E80088F813F0FFFE0028D7D00135D0E7534590
:10A4F8000BD1029908234A462046891B13F0F2FE25
:10A5080018B9204602A913F032FF204602A9FFF726
:10A5180031FF054618B1384611F0AEF9C5E7029B80
:10A528004FEA13484FEA08486360C4F80880D4E942
:10A53800011399420FD30823204603AA13F0C4FE3F
:10A5480005460028E7D103AB13F8012B91453FD10D
:10A558000135082DF8D1636820461B0C1B0402A99D
:10A56800029313F004FF4A462046A389029913F088
:10A57800B9FE051ECFDB636800F09C804FF6FF79BB
:10A5880003EB0608A3891FFA88F29B1B9A42CDF8B1
:10A59800088039D300223748036803F00703002AEC
:10A5A8004CD0022B03D90321384A13F0EDFE63681F
:10A5B80020461B0C1B0402A9029313F0D8FE204668
:10A5C800029913F0BAFE0546002D00F09180A2E72B
:10A5D800204603A913F0EDFE626810B9921B626071
:10A5E800A5E7BDF81050BDF80E10E06AC4F8088061
:10A5F800294413F0D4FE40449042A060EED1002DCF
:10A60800ECD06FF01C05AEE008234146204605AAB1
:10A6180013F05AFE054600287FF47DAF204605A9B1
:10A6280013F0C7FE30B1BDF814304B4502D1BDF868
:10A6380018300BB1B044A5E70122ACE7022B03D9CF
:10A648000321134A13F0A0FE2046616813F075FE3B
:10A65800054600287FF45FAF63680E4AA18913405E
:10A668000B44A3EB4603636013402046A36013F03A
:10A6780083FFA8E718CE002068A202008AA2020081
:10A68800A7A20200BFA20200D3A20200F6A2020003
:10A698000BA302000000FFFF4A4620465B1A13F096
:10A6A80021FE051EFFF637AF08D0E26AA3681268DC
:10A6B8001344A360D4E901318B42EDD86168A389C2
:10A6C80001EB46029A427FF47FAFDFF8A880A268C8
:10A6D80001EA08039A423FF477AF204613F02DFEB3
:10A6E800054600287FF417AF636803EA0803A360F0
:10A6F800A389A288A3EB46039A4230D0384611F0CA
:10A70800BBF801231C4D23742B6803F00703022BAD
:10A7180023D9E389A289032100922846174A14F015
:10A72800C0F82B6803F00703022B16D963689AB2A6
:10A7380000921B0C03212846114A14F0B2F82B682A
:10A7480003F00703022B08D9A3689AB200920321E9
:10A7580028460C4A1B0C14F0A4F80025A5E6204650
:10A7680013F0F3FE0546384611F086F8002DC8D0E0
:10A778009BE600BF0000FFFF18CE002032A30200B6
:10A7880049A302005BA302002DE9F04F1D46037C9C
:10A7980091B00446029100926BB9764803685B0752
:10A7A80003D00121744A13F0EFFD6FF00C06304618
:10A7B80011B0BDE8F08FC26A0821104613F0EFFD12
:10A7C80029460190104613F0EAFDA389019A07462D
:10A7D800A3EB8203AB42C0F0C9801DB1009B002BE4
:10A7E80000F0C48063680593204606AA05A9DDF831
:10A7F80014A013F016FE06460028D8D1BDF818306C
:10A80800029A934206D06268059B9A42ECD1002DC9
:10A8180036D1CCE7204606A913F0CBFD0028F2D0AC
:10A82800BDF81A90BDF81C3045B39D4228D14FEAB7
:10A838001A4A4FEA0A4AD144AA46E36ADDF800B048
:10A848001B685B4203F020030393DDF80C80494644
:10A85800D04528BFD0462046434608AA13F034FD09
:10A8680000284ED14246584608A91DF046FE38B980
:10A87800BAEB080AC144C344E7D198E7002B96D045
:10A88800002F41D104F114084FF0FF324FF0FF338D
:10A89800404610F079FF4FF6FF7ADFF8E0B0E38921
:10A8A8009E4260D0D4E901217B189A4230D3029BA2
:10A8B800009AADF82030FF2320468DF826302B462D
:10A8C800ADF82210ADF8245013F0F5FD2946814665
:10A8D800E06A13F064FDA2680244A260B9F1000FB7
:10A8E8000AD108A813F052FD204608A913F01CFE4F
:10A8F800002814BF8146A946404610F0BDFF4E46C9
:10A9080055E7BDDC064652E7019B1F44BFB2B9E7D5
:10A918000821E06A13F043FD0023ADF82430131832
:10A92800ADF82230A38902EA0B021A44101A6060BB
:10A9380008A8ADF820A08DF826A013F027FD08A9D7
:10A94800204613F0F1FD2046211D13F010FD636829
:10A95800204603EA0B03A36013F00EFE814600288D
:10A96800CAD101369BE76FF01B09C5E76FF01506E2
:10A978001DE700BF18CE002054A202000000FFFF10
:10A988002DE9FF471E46037C04460F469046BDF856
:10A99800309063B92E4803685B0703D001212D4A24
:10A9A80013F0F2FC6FF00C0004B0BDE8F08708214A
:10A9B800C06A13F0F4FCA389A3EB4003B34243D36A
:10A9C8000025D4F804A0CDF804A04D455146DDF883
:10A9D80004A009D9636853451ED1BDF80830BB42AD
:10A9E8001AD06FF00100DFE7204602AA01A913F090
:10A9F80018FD0028D8D1BDF80830BB4206D1204642
:10AA080002A913F0D6FC08B10135ADB26268019B0A
:10AA18009A42DAD15146E0E7BDF80C30002BE0D07D
:10AA2800A945DED8BDF80A00090CB3424FEA014136
:10AA380028BF334601444246204613F045FC00280F
:10AA4800B2D1BDF80C00AFE76FF01500ACE700BF5E
:10AA580018CE002054A202002DE9F047044607460C
:10AA68004FF00109DFF8508014B93846BDE8F08787
:10AA780094FAA4F5B5FA85F509FA05F32E0108EB61
:10AA880005156FEA030A24EA03042B7B002BEBD09D
:10AA980058F806301B694BB94644736804222846A7
:10AAA800196807EA0A0700F019FBDDE72846984706
:10AAB8000028D9D1F0E700BF288B020030B500226A
:10AAC80089B00F490F481DF050FB002200230024D5
:10AAD800CDE906230E230C4DCDE903344FF4407223
:10AAE8002846CDE90144094B0949009411F064FA5C
:10AAF8000849284611F09EF9204609B030BD00BF2C
:10AB080021AB000090D60020D0D1002029AE000053
:10AB180058F9002073A30200014810F01BBF00BFC2
:10AB2800ACCF00202DE9F04780461F480F4613F0B0
:10AB38000FFE0646002830D000252846BDE8F087DD
:10AB4800237B6BB12368DB680BB1204698472368E9
:10AB58001B69D3B9636804222046196800F0BEFA5D
:10AB6800013610344C45EBD3B8F1000FE5D0002D79
:10AB7800E2D02846FFF770FF0546002FF7D00021E6
:10AB88004FF4A47011F0E8FCF1E72046984700283C
:10AB9800E0D00AFA06F31D43E2E705464FF0010A42
:10ABA800024CDFF80C90DDE7B4E10020288B0200AE
:10ABB800388B020008B5034608462BB1044A1360D7
:10ABC80000F05CFD002008BD6FF01500FBE700BF3A
:10ABD80044C6002010B5044C237813B9034810F07C
:10ABE800B9FE0123237010BD0DF80020ACCF002062
:10ABF80010B50446064813F0ABFD3CB1054BD3E84D
:10AC0800EF1F0139C3E8E21F002AF8D110BD00BFC9
:10AC1800ACE10020B0E1002000200146034BD3E85E
:10AC2800EF0FC3E8E21F002AF9D17047ACE100201A
:10AC380070B5FFF7F1FF0546074C084EB44200D344
:10AC480070BD63685B792BB123685B6813B12946D3
:10AC5800204698471034F1E7288B0200388B020011
:10AC680010B5044C0449204613F04DF8034B1C6002
:10AC780010BD00BFB4CD00201C8E0200A4E100204E
:10AC880008B50023084A4FF400411370074A0848E2
:10AC98001360084A1360FFF78DFFFFF7E1FFBDE877
:10ACA800084000F06BB900BF0EF80020ACE10020AE
:10ACB80055E70100B0E100200146002200230148C9
:10ACC80013F042B8B4CD0020014813F0D8B800BF43
:10ACD800B4CD0020024B0146186813F024B900BF18
:10ACE800A4E10020014813F059B900BFB4CD0020F9
:10ACF8002DE9F041334B1878002860D0FFF7E4FFC6
:10AD0800044678B1304BD3E8EF1F0139C3E8E21F9E
:10AD1800002AF8D12D4DDFF8B88045452DD32046BF
:10AD2800FFF7D8FF2B4B2C4C1B68002B19DD1DF0AF
:10AD3800D5F94FF47A72A0FB020302FB0131C30B71
:10AD480043EA4143D4E900209B1A40F2E9324FEA32
:10AD5800D13161EB0001934271F1000101D3FFF79A
:10AD680067FFD4E9003213F57A7342F10002C4E9AF
:10AD78000032BDE8F041FFF7B5BF6B685B793BB1C6
:10AD880021784B0706D52B68214628461B6898472B
:10AD98001035C2E720462688C1F3C20700F0ACFA96
:10ADA800C6F382160246002EEDD00028EBDB012305
:10ADB8003946284600F0ACF9B042E9D3E3E7BDE8EC
:10ADC800F08100BF0DF80020B0E10020288B0200C0
:10ADD800388B0200ACE1002088D6002070B50D4DFC
:10ADE800297861B90120FFF79DFE0B4C0B4EB44248
:10ADF80006D3FFF77DFF0028FBD101232B7070BD20
:10AE080063685B791BB1236820469B6898471034B8
:10AE1800EDE700BF0EF80020288B0200388B0200F7
:10AE280000212DE9F0470846FFF77CFE044658B399
:10AE380040F267684FF000091DF03CFC1B4B1C4AB0
:10AE48001B58136033B11B4B1B68092B02DD1A48D2
:10AE580010F080FD0025194FDFF85CA044B12046B2
:10AE6800FFF7FAFD044618B94FF0FF384FF0FF39E5
:10AE7800FFF73EFF064628B9B5B942464B4650464D
:10AE880010F08EFD3546E9E74FF0FF384FF0FF39F7
:10AE9800D2E72B689B691BB10022284611469847C8
:10AEA8001035BD42F5D3E8E7054DFAE70800000084
:10AEB800A8E10020B0E10020ACCF0020388B0200D0
:10AEC800288B020013B5184813F042FC174B1B7867
:10AED80073B1EFF31184202383F31288BFF36F8FCC
:10AEE800FFF706FF84F31188BFF36F8F02B010BD20
:10AEF8000F4B1B68002BF9D050B9002200230D48D6
:10AF0800CDE900234FF40042002311F007FEEDE7DE
:10AF18000928EBD107481DF034F9074802B0BDE80D
:10AF2800104010F017BD00BFB0E100200EF800205F
:10AF3800A8E1002090D60020ACCF002010B5064B29
:10AF480004461B6898472146A060044812F078FF21
:10AF5800BDE81040FFF7B6BF44C60020B4CD0020BE
:10AF6800044A054B9B1AB1EBD30F34BF52F831009A
:10AF780000207047488A0200288B020000210B48F5
:10AF88000B4B30B51B1A0B4CDB080430994200D12F
:10AF980030BD10F83120256802F0070225F00705BA
:10AFA8002A4344F8042B0131F0E700BF488A020025
:10AFB800288B0200F8CD0020F8B5064600240A4F79
:10AFC8000A4DED1BED08AC4203D14FF0FF3420468B
:10AFD800F8BD57F8340020B13146FDF769FA00286A
:10AFE800F5D00134EFE700BF488A0200288B020041
:10AFF80000282DE9F047884615461F461DDA4FF010
:10B00800000A5446DFF89090244EA6EB090636094C
:10B01800B24509F1100902D12046BDE8F08759F878
:10B028000C0C3B462A4641460079FFF7E1FF844273
:10B0380038BF04460AF1010AEAE7194B194AD21A3D
:10B04800B5EBD20F26D203EBC5031C79BC4228BF4F
:10B058003C460722144EC0B200EB400056F825309B
:10B06800824023EA020304F00702824013430021CE
:10B07800032223FA02F000F00700814202F10302E2
:10B0880038BF01461E2AF4D123F007030B4346F8C4
:10B098002530C1E70024DCE7288B0200388B02004A
:10B0A800488A0200288B0200F8CD0020F8B5064631
:10B0B8000F460024074D084BED1AED08AC4200D3AB
:10B0C800F8BD002122B23B463046013413F05CFB48
:10B0D800A4B2F3E7288B0200488A020038B50D466F
:10B0E80011460A4B4268C31A1B11044601331371F7
:10B0F80043689971FFF7DAFF012263681D6063688E
:10B108005A71BDE83840FFF765BD00BF288B0200C3
:10B1180070B14168097973B1002A17DBCBB20C49C9
:10B1280003EB430351F82200D84000F007007047B2
:10B138004FF0FF31EFE707490748401AB2EBD00F4D
:10B148003ABF01EBC20108791846704704207047DE
:10B15800F8CD0020488A0200288B02002DE9F04F24
:10B168008FB0C1F34A2804AF0D469146B8607B60A2
:10B178000C0DB8F1000F67D000264FF0040B4FF00C
:10B188000A0A07F11403C7F80C80C7E907667E624C
:10B198000193CDF808B0CDF800A007F11C033246A2
:10B1A8004846F968FEF75EFDB0F5006F034620D308
:10B1B8002A48036813F0060F17D06C468AB0D9F8EE
:10B1C800041004AB264D1A46C3E9055140F2FF713D
:10B1D800D9614FF400711984224B42F8103F4FF4A3
:10B1E80012513346FFF7BAFFA5462C37BD46BDE8D6
:10B1F800F08FC0F30A0804F11700184420F0070084
:10B2080080083B60FFF758FD68F35325044690B16A
:10B218003B6800F11001C7E9083607F11403F9612A
:10B22800CDE900A3CDF808B048460F4AF96807F100
:10B238001C03FEF717FD68F353252A4620467B6852
:10B24800B96813F0CBFAD0E704F1170020F0070033
:10B258008008FFF731FD0446EDE700BF2CCE002043
:10B2680088A3020004000001B9E701002DE9F04FAE
:10B2780087B00446DDE9105ADDE912690F469346A6
:10B288009846A6B31021334652460020CDF80090C8
:10B29800CDF81490FEF714FB014605F11700084499
:10B2A800144B04F007040BF0070BE40020F0070030
:10B2B80003EA412344EA8B1480081C430391FFF7F7
:10B2C800FBFC44EA0554054640B13EB133465246BC
:10B2D8000399CDF800901030FEF7F2FA4346224663
:10B2E8003946284607B0BDE8F04F13F077BA314623
:10B2F800D3E700BF00FE0F00406820B1034BC01A1F
:10B3080040F38F0070474FF0FF307047F8CD0020B2
:10B318000EB403B503AB53F8042B0146044801935C
:10B3280003F034FC02B05DF804EB03B0704700BFD3
:10B33800F9E80100CA0605D48B064CBF0249034947
:10B34800FFF7E6BF704700BFF4A502003CBF02004C
:10B358002DE9F04F89B09B46149B9DF84CA00693AD
:10B36800159B04460593169B0D469046179E04931D
:10B37800BAF1000F00F09D8006F48073079313F074
:10B3880001FA06F00209024600283ED020469149FB
:10B39800FFF7BEFF0746B9F1000F08D016F0440FBB
:10B3A80035D12A4620468C49FFF7B2FF074406F0FC
:10B3B800010353B1894B204653F82A20884B894909
:10B3C800002A08BF1A46FFF7A3FF06F48073002B74
:10B3D80049D006F00803002B63D1B8F1000F66D0FE
:10B3E800424620468049FFF793FF0546069B3D44A9
:10B3F800002B6DD1049B002B73D1F30700F1E4807F
:10B4080031462046FFF796FFD8E00746C3E7774B5B
:10B4180018680028CAD0764B4FF47A791B684FF425
:10B428006161B5FBF3F5B5FBF0F300FB135509FBC0
:10B4380005F5B3FBF1F2B5FBF0FE4FF03C0C01FB58
:10B44800123100FB1E55B1FBFCF309FB05F5B5FBFA
:10B45800F0F50CFB131120460091CDE901E5654993
:10B46800FFF756FFA2E706F00803EBB1624B204650
:10B4780053F82A206149FFF74BFF0546B8F1000F42
:10B4880005D0424620465849FFF742FF0544BBF124
:10B49800000FABD05A4620465949FFF739FF0544FB
:10B4A800A4E74FF0000BE1E706F00805E6E745469C
:10B4B8009CE7BBF1010F069B06D1002B64D1049BCE
:10B4C800002B7BD000250CE0002BF8D04D485CE029
:10B4D8004D48069B22464D4912F0A5FA049B002BC5
:10B4E80068D0DFF82C81DFF82C91049F3146102FAB
:10B4F800204628BF10274FF0000BFFF71BFF5D45C4
:10B5080045DC059B494620461A78FFF701FF4FF0B6
:10B51800010B1BF0070F03D141462046FFF7F8FE49
:10B528005F453BD9059B4946204613F80B20FFF79A
:10B53800EFFE0BF1010BBBF1100FEAD14FF0000B3E
:10B5480020463549FFF7E4FE5A46059B20469A5C9B
:10B55800A2F120015F2928BF2E223049FFF7D8FE2B
:10B568000BF1010BBBF1100F1DD01BF0070F03D11E
:10B5780041462046FFF7CCFE5F455A46E5D841468E
:10B588002046FFF7C5FEEBE71F485546A1E74146B1
:10B598002046FFF7BDFE0BF1010BB0E7204620491E
:10B5A800FFF7B6FEC5E7059B3B440593049BDB1BF1
:10B5B80004939AD1BAF1000F7FF41FAF204609B067
:10B5C800BDE8F04F13F087B92046054A0549FFF753
:10B5D8009FFE15E7CCA30200D0A30200308E020024
:10B5E800C7A302002BA80200F5A30200BCE10020BB
:10B5F800B8E10020D9A30200448E0200F9A302009A
:10B60800FFA3020027E90100F9E8010095EB00001B
:10B618000CA4020004A402000EA402003DAE020025
:10B628000AA4020042F20F7373B58B4228BF0B467F
:10B6380005680446052168460D4A11F04FFB064689
:10B648006368284604225B680A4913F036F9636880
:10B658003246694628465B6813F02FF9636817225B
:10B6680028465B68044913F028F902B070BD00BF92
:10B678008FA0020028A4020010A4020000210123C8
:10B68800064A904206D8064A01B901231360054BC1
:10B6980018607047012140085B00F2E740420F0044
:10B6A800B8E10020BCE10020014B03600020704796
:10B6B800588E020070B5114B0D461C68DCB1104B5A
:10B6C800196800238B4202DB6FF0010070BD22462F
:10B6D80012F8106B864202D014460133F2E7E06894
:10B6E80010B96FF01200F1E71CF0D5F80028F8D077
:10B6F80000202C60EAE76FF00C00E7E79CC600200A
:10B708000893020070B588B005460C46C0B2694679
:10B718001646FFF7CFFF00281BDB0098C8B1436827
:10B728002268029383680195CDE903360023CDE9A9
:10B7380006230593C56813F035F96DB12846084905
:10B7480001AA1AF0C6FA079808B9059B236008B041
:10B7580070BD6FF01500FAE76FF01200F7E700BF51
:10B76800AFE901002DE9F0410F4B05461C680E4674
:10B778001746ACB14FF0FF324FF0FF330B4810F0D3
:10B7880003F863683246D3F8088029463B462046CA
:10B79800C0470446054810F06FF82046BDE8F08120
:10B7A8006FF00104F9E700BFC0E1002070CF00206E
:10B7B80000230360044B5A6812B9C3E900007047BC
:10B7C80010605860704700BFC4E10020014B18604A
:10B7D800704700BFC0E10020002330B585B00546A2
:10B7E800CDE9023301904FF0FF334FF0FF320B48A1
:10B7F8000FF0CAFF0A4B1C684CB9284600F0C4F881
:10B808000446064810F038F8204605B030BD636895
:10B8180020461B6801A998472468EDE770CF0020EF
:10B82800C4E100200022024BC3E90022704700BF98
:10B83800C4E100200022024BC3E90022FFF7F2BF57
:10B84800CCE100202DE9F74307460C4609B1002357
:10B858000B6000261E4DDFF87C904D450FD31E4B24
:10B868001D6885B355F8148C3846414601AA143D25
:10B8780013F0BEF810B3D6B914BB2E461EE0D5F8A7
:10B8880000803846414601AA13F0B2F850B116B903
:10B8980054B92E4606E000224046316813F0A8F855
:10B8A8000028F5D11435D8E7019B2360F1E7002281
:10B8B8004046316813F09CF80028DDD16D69D0E767
:10B8C800019B2360D9E7304603B0BDE8F08300BF91
:10B8D800388B02004C8B0200CCE100202DE9F047A8
:10B8E80084B002AFD7F8289004460D46164698460D
:10B8F8007860B9F1000F07D0D9F8001051BBD9F81A
:10B9080004A0BAF1000F2CD12046391DFFF79AFF89
:10B9180028B34346D0F80890324629467868C84785
:10B928000346E0B115480268520718D06D468AB040
:10B9380002AAD3614FF4007311491384114BC2E971
:10B94800051442F8103F00234FF41151FFF706FC8D
:10B95800AD4604E03A1D13F04BF80028CFD1002083
:10B9680007E0D9F8083032460093294643467868FC
:10B97800D0470837BD46BDE8F08700BF50CE00204D
:10B988004DA4020004000001F8B506460025174C36
:10B99800174FBC4208D3174B1C682CB3143CB6B9DC
:10B9A800E368E3B96469F8E72EB9E3685BB9284648
:10B9B80005461434EDE700223146206813F018F8E4
:10B9C8000028F2D1F3E79847002DF0D1F0E70022E4
:10B9D8003146206813F00CF80028E1D1E2E79847D7
:10B9E800002D08BF0546DDE72846F8BD388B020064
:10B9F8004C8B0200CCE1002038B50C4D4FF0FF33E2
:10BA08004FF0FF320A480FF0BFFE2B783BB9FFF723
:10BA180011FF00F06DF8044610B901232B700024C3
:10BA280003480FF029FF204638BD00BF0FF800205B
:10BA380070CF00202DE9F04706468946048FDFF8CD
:10BA4800ACA0013498B0A4B200F10807651EADB2ED
:10BA5800B5F5004F47D04A23294605AA384612F0C3
:10BA68005CFE04F57F543F34A4B28046214601238E
:10BA780038460DF10B0212F050FEB8F1000F0146E6
:10BA880010DC002810DC338FAB4209D132466B1E24
:10BA980022F8383F4FF4004102233846FEF774FE7F
:10BAA8002C46D3E7002808DC2946384612F031FE38
:10BAB8002146384612F02DFEE5E708F160030DEB4C
:10BAC80003080023524608F84C3C05A8CDF800901E
:10BAD80003AB0397ADF81040FFF700FF0028DFD055
:10BAE80018B0BDE8F0870020FAE700BF45EA01007A
:10BAF8007FB50123694605200193FFF7DBFD044666
:10BB080060BB052002AA01A9FFF7FCFD044610B19D
:10BB180010F10C0F22D10399B1F5803F23D20023F5
:10BB28001846009A9468084484421AD30133042BB7
:10BB3800F9D10E4DA982EB8253682846AB60D368D1
:10BB4800EB6313F013F8044640B9094E28466E60BB
:10BB5800FFF72EFE28466E60FFF738FE204604B039
:10BB680070BD9BB2E5E76FF02004F7E7D4E1002051
:10BB780048C6002008B50821024B034A13F066F9AD
:10BB8800002008BD7BA4020082A4020010B5044670
:10BB98000BF06EFC08210346074A204613F056F9BD
:10BBA8002046064A082113F051F92146044810F0AE
:10BBB800ADFD002010BD00BF17A5020036A502008C
:10BBC800CDBB000070B58EB004460D46D0F89C6021
:10BBD8001CF0FBF802461CF06DFD254B1958254B4F
:10BBE8002846002A18BF1346234ACDE90043234BB1
:10BBF8008C4218BF13460821214A13F027F9D4E9CB
:10BC08000A23CDE9022394F90E3028460093237BBA
:10BC180008211C4A13F01AF906A92022204610F020
:10BC280019F9626E0346009208212846164A13F055
:10BC38000DF9204605A91CF0D8F8034630B10821B3
:10BC48002846124A13F002F90EB070BD6423059A13
:10BC58002846B11A4B43B3FBF6F3CDE90021CDE9F1
:10BC68000263082133460A4A13F0F0F8ECE700BFF4
:10BC78000800000040A502000CA40200A3B80200BE
:10BC880043A502004FA502007BA5020092A5020071
:10BC9800BFA50200F0B50025044693B029460AAFB7
:10BCA8001C220BA81CF021FC134E1A222021384616
:10BCB8001CF01BFC2146114810F028FD09AA4FF47E
:10BCC800006130461CF085F864224FF4006309993E
:10BCD800CDE90057C1F500604243D20ACDE904031B
:10BCE800CDE902312046069233460821044A13F072
:10BCF800ADF8284613B0F0BD380E0120FDBD000098
:10BD0800F6A5020010B504461AF001FA0821034608
:10BD1800024A204613F09AF8002010BD3FA6020000
:10BD28002DE9F3411746002304460A21B86801AA01
:10BD3800019301F06BFB019DC6B255B12B46012161
:10BD48002046144A13F082F8019D284602B0BDE847
:10BD5800F081042E0AD93346012120460E4A13F0F9
:10BD680075F8204613F0ADF80125EEE77868FFF77F
:10BD780023F9B0F1000805DA012120467B68074A5B
:10BD880013F064F80021334608460FFA88F212F0DF
:10BD9800FBFCDAE755A602007CA6020093A6020087
:10BDA8001346002273B5044601920A21586801AA75
:10BDB80001F02CFB019D95B920EAE0744FF4004690
:10BDC800294640F2E7304FF47A720023C4FB06019B
:10BDD800FCF706FA10F0C0FB284602B070BD2B46EF
:10BDE80001212046024A13F031F8019DF4E700BF13
:10BDF800B2A60200F0B504460D46D0F89C6089B0A2
:10BE080007A91BF0F2FF034630B1082128460F4A64
:10BE180013F01CF809B0F0BD20461BF0D6FF6423D0
:10BE2800079A0B4FB11A4B43002818BF0746B3FBBC
:10BE3800F6F3CDE90221CDE904630821234628461B
:10BE4800CDE90076034A13F001F8E3E792A5020072
:10BE580040A50200D2A602002DE9F04387B00546AE
:10BE680068460FF013FA1423009E082103FB0066AE
:10BE7800164A284612F0EAFF154F009CDFF8548056
:10BE8800DFF85490B44203D3002007B0BDE8F08334
:10BE980023680BB11A7832B923463A46142101A80F
:10BEA80010F01CFF01AB42460821284612F0CEFFD5
:10BEB80020461BF0F0FC094B0821002808BF4B4620
:10BEC800074A284612F0C2FF1434DBE71AA802001A
:10BED80024A8020029A8020011A802000BA8020049
:10BEE8009CAE02008B1E022B2DE9F04107468846C6
:10BEF800144637D810220021606810F091FFB8F17D
:10BF0800020F064607D1202308213846244A12F09A
:10BF18009DFF336816E00A220021A06810F080FF18
:10BF2800C5B22B46082138461D4A12F08FFFB8F1DA
:10BF3800040F1AD0102D0DD0202DEAD0082D0CD1C9
:10BF48003378DBB208213846164A12F07FFF00200A
:10BF5800BDE8F08133889BB2F4E708213846124ADD
:10BF680012F074FF6FF01500F2E710220021E0686C
:10BF780010F056FF0821034604460C4A384612F0D2
:10BF880065FF102D06D0202D07D0082DE5D1E4B28D
:10BF98003470DCE7A4B23480D9E73460D7E700BF57
:10BFA80062A802008DA8020077A802009EA80200DD
:10BFB8002DE9F04F91464FF0FF350122574B85B0E0
:10BFC800074688461A602026FDF7BCFB2C46DFF89A
:10BFD80050A1494652464046FDF7D8FB411C07D1BF
:10BFE8006A1C52D14F4A0121384612F02FFF1DE03A
:10BFF800732820D0772833D0612817D1DFF828B1EB
:10C0080010220021DBF8000010F00AFF0546002886
:10C01800DFD11CF04FFB454B1B58162BD9D1DBF851
:10C028000030434A0121384612F010FF6FF0150026
:10C0380005B0BDE8F08F0022DFF8ECB01146DBF860
:10C04800000010F0EDFE04460028C2D11CF032FBBF
:10C05800364B1B58162BBCD1DBF80030354AE1E7CC
:10C068000022DFF8C4B01146DBF8000010F0D8FE5B
:10C0780006460028ADD11CF01DFB2C4B1B58162B77
:10C08800A7D1DBF800302C4ACCE7631C01D12B4A3E
:10C09800A9E75FFA86F8C6F3C406002C3CD06B46C5
:10C0A80029461A46A6EB050C0CE0B8F1100F1DD076
:10C0B800B8F1200F20D0B8F1080F2AD108781870ED
:10C0C80031443344A64203D80CEB01001028ECD9C4
:10C0D800102CA14628BF4FF0100929464B46384678
:10C0E80001F060F81035A4EB0904D6E7088880B29F
:10C0F8001870000A5870E3E708684FEA102E1870A5
:10C1080083F801E04FEA104E000E83F802E0D87081
:10C11800D6E708210A4A67E7204689E738C600209B
:10C12800ECA80200F3A80200F8E000200C000000D0
:10C13800B2A80200C5A80200D8A8020010A90200EF
:10C1480077A8020070B5104E04460D46337881B1C9
:10C158002BB10121BDE870400C4A12F077BE0123D3
:10C168003370082120460A4A12F070FE012333700A
:10C1780004E083F001033370002BF2D129462046F6
:10C18800BDE8704012F0BABE10F800202AA90200DB
:10C1980065A9020070B504463C480378182B02D103
:10C1A8000B78112B31D00B46013A8D18AB4225D1B3
:10C1B8008B5C0A780370A2F13003092B344C04D944
:10C1C80022F02003413B052B04D823683149CA5487
:10C1D800013323602368022B34D1102200212D481B
:10C1E80010F01EFE2C4A136803F8010B13602B4A4B
:10C1F8001368013313600023236023E013F8016BF5
:10C20800182ED3D11E78112ED0D1244D08212B6899
:10C218002046234A12F01AFE20460021FFF792FF1B
:10C22800204B187870B9204A2B681168042B0ADC57
:10C2380008B111602B6013F003010BD11268136869
:10C248001BBA136070BD0868043B00BA41F8040BC0
:10C258000120EBE75B4203F0030358BF5942022970
:10C2680004D1126813885BBA9BB2EAE70329E9D1C3
:10C27800106802681104C2F3074301F47F010B43FD
:10C2880002F47F4213430360DCE700BF11F800208B
:10C2980014E2002013F8002020E2002018E2002019
:10C2A8008FA9020012F800201CE200202DE9F84FA7
:10C2B8000023064615460C462949DFF8A8800B607E
:10C2C8002949DFF8A890DFF8A8B088F800300B609B
:10C2D800012C2F4655F804AF1ED902224946504674
:10C2E8001CF045F980B99AF80220003A18BF0122DB
:10C2F8009244504602221F491CF039F930B90123F3
:10C3080088F80030013CE3E70022F1E7494650464F
:10C31800FCF7CEF8A8B9043700227868114610F067
:10C3280009FD0022144B11461860786810F002FDD0
:10C33800124B134918603046FFF704FF0020BDE890
:10C34800F88F9AF800202D2AE6D19AF80120002AC1
:10C35800E2D053465A460821304612F077FDD1E71D
:10C3680014E2002012F8002018E20020A9A9020017
:10C37800AFA90200ACA9020020E200201CE20020C4
:10C388009DC1000007B50A481BF085FA60B1042377
:10C39800084A0093126801230549074800F074FF12
:10C3A800002003B05DF804FB6FF01200F9E700BF4E
:10C3B800D0870200A48F0200D88B020010B5446811
:10C3C800A3604023C4E9001242680821D36402F143
:10C3D800580313630023C2E90E33C2E91133C2E9DB
:10C3E8000633C2E90933D162146802F1500153637C
:10C3F8001364116153611362C2F8D030A36823B18A
:10C408001B6C13B1204604499847A3681B6A0BB1FB
:10C4180020469847002010BD25C400002DE9F743A9
:10C4280004460D468368DB6B03B19847A368DB6A53
:10C438000BBB4FF0000905F130084046EA6C01A932
:10C4480011F09FFE0746002836D0A36801991B69A2
:10C458003BB3024620469847064628B33146404635
:10C4680011F0ACFEB7424FF00109E6D00020D5E943
:10C478000131984703E0204698470028D9D1A3689E
:10C48800DB6963BB05F110073846EA6A01A911F0B8
:10C49800C9FE064650BB204612F099FBC5F8D0608D
:10C4A8002FE06FF05706D9E70146404611F086FEA7
:10C4B800B9F1000FE3D0D9E71648036813F0060F67
:10C4C80003D00221144A12F0D9F9A3681B69002B82
:10C4D800EED0012220460DF103019847E8E72046F7
:10C4E80098470028CED103B0BDE8F083A36801992E
:10C4F800DB685BB10246204698470146384611F092
:10C50800ADFED5E9013101209847ECE76FF05701FE
:10C51800F4E700BF58CE002010AB020010B5044667
:10C528008168183101F0A6F9A1682046BDE81040DD
:10C53800014A183101F044B952AB020038B583689A
:10C548000446D3F87832DB071DD4C06913F0EAF942
:10C55800606803685B689847054620B9E06813F08F
:10C568008EFBA3681D75A3685B6C13B12946204632
:10C57800984700221CF09EF8A368C3F82023034BB9
:10C58800185801F07FFF6FF00F05ECE70800000076
:10C59800014912F0B4BB00BFF4A50200F7B5044688
:10C5A80080680D46D0F878325A0705D5002112F078
:10C5B800C8FBE06813F035FBE368DB6873B9002D4E
:10C5C8003BD0A66806F15607384612F092FB0028C1
:10C5D80035D0394606F5AB70FBF774FFA2682946DB
:10C5E800E0680DF10603563213F01EFB58B9A06837
:10C5F80000F5AB715630FBF765FFA068563012F0B6
:10C6080078FBADF80600204612F069FFA368D3F85E
:10C6180074329B0603D50B49606912F070FB204603
:10C6280000F05CFFA268BDF806302046A2F8523040
:10C63800A268A2F8503012F0B7FE03B0F0BD86F839
:10C648005601CBE7588C02002DE9F04FA7B00446FD
:10C658005422002111A81BF048FF0023CDE905331F
:10C66800A36820465633029312F040FF204612F08A
:10C6780084FE10B96069FFF78BFF00264FF0FF3783
:10C68800B246B3463546B146A06814220021183098
:10C698001BF02BFF204612F017FEA168E068B1F8E6
:10C6A8005020563113F0F7FA204613F076FB0DF1BF
:10C6B80044080396DDE90532012A6DD0132B6ED8A4
:10C6C8005FBBBBF1000F0AD0204613F087FB142391
:10C6D800A26811A956320DEB030012F075FCB9F1EE
:10C6E800000F0CD099F81130FE2B08D1059B26AA13
:10C6F80002EB830252F8542C0AB101330593A06867
:10C70800059D436A002B40F0B680CEB1C3699E42B6
:10C718002DD00D9600F1180524E002234146029A17
:10C7280006A812F051FCD8F8042006990346029294
:10C7380031B101290AD148B16D4A204612F084FF6F
:10C748006FF00705284627B0BDE8F08F059B002B42
:10C7580034D0D8F8000001F0ADF898B166B1A568FA
:10C768000D9618350CAE0FCE0FC533682B602046DA
:10C77800FFF7D4FE0125E5E75E4A0121204612F0C5
:10C7880063FFDDE7059BCBB129462046D8F800209A
:10C7980001F040FA022809D1059B132B91D9069B79
:10C7A800022B8ED10121544B544AC6E7032805D0E9
:10C7B800059B4FF0010B013305937BE7039B33B9CE
:10C7C8004846D8F8001007AA12F0F5FC054608F10B
:10C7D8000408013F9DB3EB68BBF1000F08D0F3B12B
:10C7E800204612F083FE204612F0DEFD444AC4E7DC
:10C7F800ABB1AE46A368DDF814A003F1180CBEE88F
:10C808000F00ACE80F00DEF80030CCF80030AB6861
:10C818002BB96B7CFE2B04BF2F7C07F1FF37D5F8B3
:10C8280004C0BCF1000F08D0AE460CAEBEE80F0045
:10C838000FC6DEF8003033606646A94603E0059B64
:10C8480053B101230393069B17B9022B7FF432AF30
:10C85800059B013305932DE7A368DB6A13B1DB68F9
:10C86800002BEED1274B012100932046119B264A2D
:10C8780012F0EAFEE5E790F82830A5EB0A05BBB10F
:10C888004FF6FF7290F82910FF2918BF0A469D42FB
:10C8980002D313449D420BD98369012120461B4AC8
:10C8A80012F0D2FE2046FFF739FE6FF0150549E772
:10C8B800012112F03BFAA06800F5437012F05AFA11
:10C8C800A36811AA294602EB8A0220465B6A9847A8
:10C8D8000546A0684FF0FF324FF0FF3300F5437074
:10C8E80012F0EFF90021A06812F020FA2AE700BF41
:10C8F80060AB020074AB0200D5AB0200A89B02003B
:10C9080092AB0200C1AB0200B4AE0200F9AB020068
:10C91800022210B5836804461A7583689B6CBBB9FC
:10C9280012F0AEF98368D3F87832DB040BD5032113
:10C93800084B094A12F088FEA0686FF4805100F590
:10C948001E7012F0B3F92046BDE8104000F01ABF7F
:10C9580010BD00BF14AC02002BA802002DE9F04F57
:10C96800044680680121B1B000F51E7012F093F9F9
:10C97800A3681B7D022B20D100230993A36860685C
:10C988009E6C03681D6909AB0EB310221BA9A8474A
:10C99800099B93B10121A06812F0C8F92046099AB1
:10C9A8001BA9B0470021A06812F0C0F9A3689B6CCE
:10C9B800002BE3D12046FFF7ABFF6FF00101A06821
:10C9C80000F51E7031B0BDE8F04F12F06FB90122CA
:10C9D8000DF12301A847099B002BEED09DF92320D8
:10C9E8009DF82310002AA368C8DB5A7D032A00F2A9
:10C9F8009582DFE812F004008202990293020D2961
:10CA08007CD00A2958D0B3F8782209296FF3CA02D2
:10CA1800A3F87822A06800F086803DD80029ADD020
:10CA2800082900F0F9810346D3F874229207A5D5A6
:10CA380001391629A2D801A252F821F0D1CF00005D
:10CA48005BCE000063CE000053CE0000C5CF0000CF
:10CA580081CE000085C9000085C9000085C9000095
:10CA680085C9000089CE000091CE000085C900006C
:10CA7800BBCE000085C90000C5CE000085C90000F6
:10CA880085C9000085C9000085C90000C9CE00001D
:10CA980085C90000F3CE00001B2941D07F2900F092
:10CAA800C781A1F120025E2A0346BDD8012112F0F8
:10CAB80048F99DF82310B7E0D3F87822C2F3C702EB
:10CAC8002AB1D3F87822C2F3C7020A2AACD1B3F844
:10CAD800782261F3CA02A3F87822A568B5F8501045
:10CAE800C1B9284612F02DF9E06813F09AF8606988
:10CAF800FFF74EFD2046FFF70BFF3FE7D3F87822FC
:10CB0800C2F3C702002AE2D0D3F87822C2F3C702E0
:10CB18000D2ADBE72046FFF797FDC5F82403E9E770
:10CB2800012343752AE7D0F874329B077FF526AFB7
:10CB3800012112F006F9A068B0F85030FF2B3FF43D
:10CB48001DAF0025B0F8522000F1560100F5AB707A
:10CB58001BF0A4FCA3681BA9B3F852200BA813442C
:10CB680083F85651A268142302F5AB7212F02CFA1E
:10CB78000B9914293FF602AF30AB03EB810343F85E
:10CB8800545CA368B3F85220134493F85530202B13
:10CB980002D0093B042B4BD800294CD100250A951B
:10CBA8000A9B30AA02EB830353F854AC0026504684
:10CBB80012F09FF8B3468146B046374639462846B4
:10CBC80016AA00F0E9FB0346002840D1012EA76809
:10CBD80065D10A9B30AA02EB830353F8540C12F078
:10CBE80088F84146064607F11802284600F0D4FBAB
:10CBF8000568284612F07DF8864205D0821B92B25D
:10CC08002046A91912F067FDA068B0F85230034415
:10CC180093F85630202B31D0093B042B2ED9D0F86D
:10CC28007432DF072FD42021204600F073FDA5E6DB
:10CC38000129B3D9013900200CAB009301900AAB4C
:10CC48001BAA12F0E3FA05460028A9D196E61B684C
:10CC58004A465146184603931BF089FC60B9039B6A
:10CC68001846FBF737FC584538BF5846002E08BF12
:10CC7800B8461FFA80FB013601379FE7012120469D
:10CC880012F0C6FB7AE6002112F065F82021204652
:10CC980000F040FD0121A06812F05DF86EE60490F6
:10CCA8007FF66CAE0A9A30AB03EB820252F8543C22
:10CCB800C1461846039312F01CF8049B0590A7F888
:10CCC80040300496A26849462846183200F064FBB2
:10CCD800039BD0F800A009F101094BB1BAF1000F8C
:10CCE80006D019465046059A1BF041FC0028E9D1A8
:10CCF800A168BAF1000F4DD1A1F840A0049B013BF7
:10CD08000493DFD16069FFF743FC204600F03AFD49
:10CD18000A9B30AA02EB830353F8540C11F0E9FF85
:10CD2800414611AA8146284600F036FB0746A0680E
:10CD38003968FF2200F5AB701BF02BFC3B684FF6FF
:10CD4800FF7708F1010AB84603935146284616AA08
:10CD58000AF1010B00F020FB002851D00022A16845
:10CD6800036801F2551111F801EF985C704503D181
:10CD780010B101324245F6D1B9F1000F01D04A4550
:10CD880006DBBA42A8BF3A46013E012E97B237D019
:10CD9800DA46DAE79848069111F0ABFF069900EBFE
:10CDA8000B074A8FBFB2121A92FBF7F2504692B2A3
:10CDB8000791069211F09DFF07993F1AB1F84000BC
:10CDC800069A00F1010CA1F840C0B0FBF2F102FB99
:10CDD800110080B2BFB260B906212046864B874A4F
:10CDE800CDF800A012F030FC3946204600F060FB78
:10CDF80084E7534606212046814A12F025FCF3E7D2
:10CE0800002F3FF4BBAD0399A7EB0902204692B26D
:10CE1800494412F060FCB1E5D0F874329E077FF502
:10CE2800ADAD012111F08DFF204612F075FCA5E58E
:10CE3800D0F874329D077FF5A1AD012111F081FF73
:10CE4800A368D3F874321907EED4204612F045FCD3
:10CE580094E5204612F053FB90E5204612F046FB7D
:10CE6800204612F08AFA10B96069FFF791FB012198
:10CE7800A06811F066FF3DE6204612F049FB7DE50B
:10CE8800204612F050FB79E5D3F874329B0603D59F
:10CE98005C49606911F033FFA368D3F874329F06C8
:10CEA80003D55949606911F02AFF204600F06AFC51
:10CEB80064E500212046FFF771FB5FE50121F9E7F2
:10CEC800204612F00CFB204611F0DAFE0121A06882
:10CED80011F037FFA368D3F874329E067FF54EAD84
:10CEE8004A49606911F00BFF48E5204600F070FBE5
:10CEF8000121A06811F025FF40E55B2902D102223B
:10CF08005A753BE5D3F874329D0706D5622907D1D7
:10CF18004FF0FF31204612F0A4FAA3680022EFE791
:10CF28006629FAD10121F5E700225A75A268D2F8DC
:10CF3800743298077FF522ADA1F131031B2B3FF620
:10CF48001DAD01A151F823F0CDCF0000D9CF0000CD
:10CF5800EDCF0000C1CF000085C9000085C90000E1
:10CF680085C9000085C9000085C9000085C9000081
:10CF780085C9000085C9000085C9000085C9000071
:10CF880085C9000085C90000C5CE0000BBCE0000E1
:10CF980081CE00005BCE000085C90000C5CF00002F
:10CFA80085C90000D1CF000085C9000085C90000EF
:10CFB80085C90000DDCF000003235375204612F019
:10CFC80095FADBE403235375204612F088FAD5E47A
:10CFD80003235375A068D0F8741201F0010181F0A1
:10CFE800010159E603235375A368D3F874329B07EC
:10CFF8007FF5C4AC29E700BF0BA4020058AC0200BF
:10D008002BA802005D8C0200628C0200588C020082
:10D0180010B5836804461A7D012A2BD1D3F87822EB
:10D02800510408D5D3F87422520704D40146DA6CA7
:10D03800C06912F060FCA0684FF0FF324FF0FF3378
:10D0480000F5437011F03DFE2046082100F082FAF9
:10D05800206811F04EFE18B10849606911F04FFEC2
:10D068002046FFF755FCA06800F5437011F082FEDA
:10D07800002010BD6FF08500FBE700BFF3A502009C
:10D088002DE9F04104468068154600F51E70002918
:10D0980037D04FF4804111F0FEFDA3680021DD6414
:10D0A800606803689B68984700284BD12046FFF7C3
:10D0B800AFFF002846D1244E244FDFF89480A068A3
:10D0C80000F52F704FF0FF324FF0FF3303210FF0C0
:10D0D8005FFD0546A0684FF0FF324FF0FF3300F5C3
:10D0E80043709DB111F0EDFD20462B460121194AF0
:10D0F80012F0AAFAA068BDE8F04100F5437011F0FB
:10D1080039BE6FF4804111F0D1FDC6E711F0D9FDA9
:10D1180032460221204611F0D6FD3A4629462046DD
:10D1280011F0D1FD20464246012111F0CCFD606886
:10D1380003685B6903B19847A06800F5437011F074
:10D1480019FEBCE7BDE8F08145C5000065C90000CF
:10D1580081ED01005EAC020010B5044608210C4ABE
:10D1680011F074FE204608210A4A11F06FFE20468D
:10D178000821094A11F06AFE20460821074A11F0E1
:10D1880065FE20460021064A00F01AFB002010BD6B
:10D1980075AC0200B3AC020012AD020066AD02002D
:10D1A80000AE0200F8B51E4617460B462F4A082166
:10D1B800044611F04BFE6EB3082120463B782C4AFA
:10D1C80011F044FE01256A0704D108212046294AA6
:10D1D80011F03CFEAE4223D9082120467B5D244A4B
:10D1E80011F034FE0135102DEDD108212046224AD8
:10D1F80011F02CFED6B9082120461E4A11F026FE51
:10D208000125AE422B4613D808212046194A11F0B1
:10D218001DFE18E008212046184A11F017FE0125C6
:10D2280008212046154A11F011FEDBE700252B46A0
:10D23800FB5C0821A3F120025F2A28BF2E23204689
:10D248000F4A11F003FE0135102D07D06B07D8D116
:10D2580008212046074A11F0F9FDD2E72046BDE82B
:10D26800F8400821074A11F0F1BD00BF16AE0200D0
:10D2780004A402000CA402000EA402000AA40200E6
:10D288003DAE02001DAE02002DE9F0430446806861
:10D298008846D0F8201315461F4689B0002960D16A
:10D2A8004FF44A721BF021F9E06812F05CFDA068A7
:10D2B80000F543701AF0DCFB4FF42F794FF41F761A
:10D2C800A06830441BF0BFF8A06800228319012130
:10D2D800484410361BF08EF8B6F52F7F09F1140973
:10D2E800EED10026A36902211E60A06866F38205BC
:10D2F80000F51E7011F0CFFC5022A36820465A8713
:10D308001822A3681A87216811F0ADFDA368414669
:10D31800C3F874526068144A03681D682346A84716
:10D328000546D0B90122A3681A75D4E90A0100227A
:10D338000023CDE906230E230393109B4FF40062CC
:10D34800CDE901730495094B00940EF035FEA368EE
:10D35800C3F82003616A0EF06DFD284609B0BDE8E8
:10D36800F0836FF07705F8E721ED010089D0000020
:10D3780010B5044613460A460146064801F006FC65
:10D3880023691B7923B12046BDE8104011F0BCBDCC
:10D3980010BD00BF29EF010038B50B46154648B946
:10D3A8001449154A521AB3EB920F05D251F823507B
:10D3B800284638BD84680CB90025F9E70F4A94421D
:10D3C8000AD30F4A944207D2184629462268904742
:10D3D8002B68002BECD1EFE70A4A944202D30A4AA1
:10D3E800944205D3246814225343E518E358F0E720
:10D3F8000133F8E7088C0200348C0200488C0200E4
:10D40800488C0200348C0200488C02000023F7B5D7
:10D418001646027804462D2A019305D16FF01503AC
:10D428000020336003B0F0BD1BF044F905460B4FF4
:10D438000A46C35101A920460FF0F2FCEB59222BF2
:10D4480002D16FF02103EBE7002BE7D1019BA34248
:10D45800E4D01B78002BE5D0E0E700BF0C0000000B
:10D468008368D3F874329B0603D50249406911F0EA
:10D4780066BF7047688C0200014911F060BF00BFA9
:10D48800F4A502000A1E0DDC0ED042238168D1F8F3
:10D498007412890608D5002A04494069B8BF524267
:10D4A80011F04DBF4123F1E7704700BF39AE0200CC
:10D4B8000A1E0DDC0ED044238168D1F87412890647
:10D4C80008D5002A04494069B8BF524211F037BF55
:10D4D8004323F1E7704700BF39AE02002DE9F0475A
:10D4E8008568044605F15600FAF7F4FF00239846CC
:10D4F80095F83C70DFF8549086B2A268558FED1B02
:10D50800B54209DB002E1FDD5633606910491A4405
:10D51800BDE8F04711F013BF1D442A4492F856A005
:10D5280082F85680A26856331A444946606911F059
:10D5380006FFA3682B4483F856A0A3685B8FDB1B08
:10D54800F61A00272B46D8E7BDE8F087A89B02000B
:10D558002BA8020008290A4617D8836893F83E10BA
:10D56800914212D083F83E208368082AD3F8743297
:10D5780005D0990609D50549406911F0E0BE9B061A
:10D5880003D50349406911F0DABE704740AE020086
:10D598006D8C020038B50D4609780446FFF7DAFFAE
:10D5A8006A78072A11D8A36893F83F1091420CD0E3
:10D5B80083F83F20A368D3F874329B0605D56069C9
:10D5C8000249BDE8384011F0BABE38BD49AE020084
:10D5D800F8B583680446B3F85020002A55D0B3F84C
:10D5E8005210002951D0553103F156050B44184605
:10D5F800A84206D3014611F80169202E3CD0A84262
:10D608003CD286B29DB2AB1B9BB2591C471CD21AA6
:10D61800014438461AF04FFFA268711BB2F8503027
:10D62800204613FA81F3A2F85030A36809B2B3F880
:10D6380050201344002283F8562011F0E9FEA36815
:10D64800D3F874329A0603D51049606911F077FE51
:10D658003B46082120460E4A11F0F6FF2046FFF708
:10D66800FFFEA368D3F874329B060ED5606909499A
:10D67800BDE8F84011F063BE0846B9E7014611F865
:10D688000169202EBDD00846B9E7F8BD728C0200AA
:10D698002BA80200768C02002DE9F04104460D46C5
:10D6A80017460AB1FFF7DCFEA368B3F85220D3F897
:10D6B8007412563213444A0721D51846FAF70AFF5E
:10D6C8000646DFF84880A6B9A368B3F85020A3F847
:10D6D8005220A06811F040FE20B107B115B1606971
:10D6E800FFF7CAFE69422046BDE8F04109B211F0D1
:10D6F8008FBE4146606911F022FE013EE3E7082132
:10D708002046034A11F0A0FFDEE700BFA3B80200DD
:10D718002BA8020013B583688DF80710D3F874227C
:10D728000446D00725D5B3F85210B3F850208A42E2
:10D738001FD0481C9DF80720A3F852000B4483F81B
:10D748005620A368D3F87412890710D5D3F8743219
:10D75800606913F0040F18BF2A22094911F0EFFD80
:10D76800204611F00AFE10B16069FFF785FE02B08D
:10D7780010BD012220460DF1070111F072FFF6E7F6
:10D788003DAE020010B5044683680221084A11F034
:10D798005BFFA368D3F874329B0707D52046FFF7D1
:10D7A8009DFE2046BDE8104011F00DBE10BD00BF23
:10D7B8002BA80200014912F023B900BFF4A502000A
:10D7C8002DE9F04F0E460021044617460D4689B054
:10D7D800304603AA01F10108FFF7DEFDB0B995B1A3
:10D7E80027B13A460821204611F02EFF00211E4F8E
:10D7F800DFF87890DFF878A0304603AA01F1010835
:10D80800FFF7CAFD60B909B0BDE8F08F006810B134
:10D81800FAF760FE80B2854238BF05464146D7E731
:10D8280003688BB11A787AB1D0F804B04A46CDE9CA
:10D83800005308213B46204611F006FFBBF1000FBC
:10D8480004D16069FFF7B6FF4146D5E75246204646
:10D858003B46082111F0F8FE6A1D5946204692B24F
:10D8680012F0DBF8F0E700BF67AE020052AE02002C
:10D87800FFA30200F7B50F6805460E46A7B1384664
:10D88800FAF728FE84B2094B2846009308213B4644
:10D89800074A11F0D9FE2846E21C716892B203B01B
:10D8A800BDE8F04012F0B9B83C46ECE763AE0200C0
:10D8B80059AC020010B507490446FAF7F9FD38B12A
:10D8C80020460549FAF7F4FDB0FA80F0400910BD8A
:10D8D8000120FCE759AE02005CAE020010B5836877
:10D8E8000446D3F874329B0603D50649406912F002
:10D8F8000BF95022A36800205A871822A3681A87B8
:10D9080010BD00BF7A8C020008B5836908211B6826
:10D91800024A11F09BFA002008BD00BF6AAE02005F
:10D928002DE9F3410F4A0821054611F08FFA00232B
:10D938000D4C0E4EDFF83880B44203F1010703D3D3
:10D94800002002B0BDE8F081626A9BB20192A26831
:10D95800082100922846424611F078FA30343B46B6
:10D96800EAE700BF7AAE0200D88B0200088C0200FA
:10D9780092AE020008B5024911F075FA002008BD00
:10D98800F5A502007FB5044600250E4EA2680DF1EC
:10D998000E030121E06802F5AB7212F045F9BDF8FB
:10D9A8000E00A36850B103F5AB73009332462B46C3
:10D9B8000821204611F04AFA0135E7E783F85601B5
:10D9C80004B070BDA3AE020010B5044611F08EFA83
:10D9D80008210346024A204611F038FA002010BDFB
:10D9E8003A9D0200022907B50DD153680121019320
:10D9F8000C4B009313680C4A11F028FA6FF01500CD
:10DA080003B05DF804FB8368084AD3F87432082130
:10DA180013F0020F064B08BF1346064A11F016FA18
:10DA28000020EDE7BAAE0200B1AE0200ADAE0200D2
:10DA3800C9A70200CFAE020010B583680446D3F828
:10DA480074329A0603D50749406912F05DF8A36855
:10DA5800D3F874329B0603D50349606912F054F871
:10DA6800002010BD818C0200868C0200F0B50129CF
:10DA7800044685B00CD05368012101935F4B009395
:10DA880013685F4A11F0E2F96FF0150005B0F0BDB8
:10DA98008368D3F87432990603D55A49406912F05D
:10DAA80033F800256FF0F9012046FFF7EBFCFA2167
:10DAB8002046FFF7FDFCA0684FF48072294600F568
:10DAC800AB708DF80B501AF010FD4F49606912F0D9
